{
  "_format": "hh-sol-artifact-1",
  "contractName": "Conference",
  "sourceName": "contracts/conference.sol",
  "abi": [
    {
      "inputs": [],
      "stateMutability": "nonpayable",
      "type": "constructor"
    },
    {
      "inputs": [
        {
          "internalType": "string",
          "name": "message",
          "type": "string"
        }
      ],
      "name": "soldOut",
      "type": "error"
    },
    {
      "anonymous": false,
      "inputs": [
        {
          "indexed": true,
          "internalType": "address",
          "name": "_from",
          "type": "address"
        },
        {
          "indexed": false,
          "internalType": "uint256",
          "name": "_amount",
          "type": "uint256"
        }
      ],
      "name": "Deposit",
      "type": "event"
    },
    {
      "anonymous": false,
      "inputs": [
        {
          "indexed": true,
          "internalType": "address",
          "name": "_to",
          "type": "address"
        },
        {
          "indexed": false,
          "internalType": "uint256",
          "name": "_amount",
          "type": "uint256"
        }
      ],
      "name": "Refund",
      "type": "event"
    },
    {
      "inputs": [],
      "name": "buyTicket",
      "outputs": [],
      "stateMutability": "payable",
      "type": "function"
    },
    {
      "inputs": [
        {
          "internalType": "uint256",
          "name": "newquota",
          "type": "uint256"
        }
      ],
      "name": "changeQuota",
      "outputs": [],
      "stateMutability": "nonpayable",
      "type": "function"
    },
    {
      "inputs": [],
      "name": "destroy",
      "outputs": [],
      "stateMutability": "nonpayable",
      "type": "function"
    },
    {
      "inputs": [],
      "name": "getOrginizer",
      "outputs": [
        {
          "internalType": "address",
          "name": "",
          "type": "address"
        }
      ],
      "stateMutability": "view",
      "type": "function"
    },
    {
      "inputs": [],
      "name": "numRegistrants",
      "outputs": [
        {
          "internalType": "uint256",
          "name": "",
          "type": "uint256"
        }
      ],
      "stateMutability": "view",
      "type": "function"
    },
    {
      "inputs": [],
      "name": "organizer",
      "outputs": [
        {
          "internalType": "address payable",
          "name": "",
          "type": "address"
        }
      ],
      "stateMutability": "view",
      "type": "function"
    },
    {
      "inputs": [],
      "name": "quota",
      "outputs": [
        {
          "internalType": "uint256",
          "name": "",
          "type": "uint256"
        }
      ],
      "stateMutability": "view",
      "type": "function"
    },
    {
      "inputs": [
        {
          "internalType": "address payable",
          "name": "recipient",
          "type": "address"
        },
        {
          "internalType": "uint256",
          "name": "amount",
          "type": "uint256"
        }
      ],
      "name": "refundTicket",
      "outputs": [],
      "stateMutability": "nonpayable",
      "type": "function"
    },
    {
      "inputs": [
        {
          "internalType": "address",
          "name": "",
          "type": "address"
        }
      ],
      "name": "registrantsPaid",
      "outputs": [
        {
          "internalType": "uint256",
          "name": "",
          "type": "uint256"
        }
      ],
      "stateMutability": "view",
      "type": "function"
    }
  ],
  "bytecode": "0x608060405234801561001057600080fd5b50336000806101000a81548173ffffffffffffffffffffffffffffffffffffffff021916908373ffffffffffffffffffffffffffffffffffffffff16021790555060646003819055506000600281905550610b7c806100706000396000f3fe6080604052600436106100865760003560e01c8063a977c71e11610059578063a977c71e14610133578063cebe09c91461015c578063e07c8f6b14610187578063ec3a6f73146101b2578063edca914c146101dd57610086565b806313381fbf1461008b57806361203265146100c8578063705099b9146100f357806383197ef01461011c575b600080fd5b34801561009757600080fd5b506100b260048036038101906100ad919061077f565b6101e7565b6040516100bf91906107c5565b60405180910390f35b3480156100d457600080fd5b506100dd6101ff565b6040516100ea9190610801565b60405180910390f35b3480156100ff57600080fd5b5061011a60048036038101906101159190610874565b610223565b005b34801561012857600080fd5b50610131610496565b005b34801561013f57600080fd5b5061015a600480360381019061015591906108b4565b61055d565b005b34801561016857600080fd5b506101716105f5565b60405161017e91906107c5565b60405180910390f35b34801561019357600080fd5b5061019c6105fb565b6040516101a991906108f0565b60405180910390f35b3480156101be57600080fd5b506101c7610624565b6040516101d491906107c5565b60405180910390f35b6101e561062a565b005b60016020528060005260406000206000915090505481565b60008054906101000a900473ffffffffffffffffffffffffffffffffffffffff1681565b60008054906101000a900473ffffffffffffffffffffffffffffffffffffffff1673ffffffffffffffffffffffffffffffffffffffff163373ffffffffffffffffffffffffffffffffffffffff16146102b1576040517f08c379a00000000000000000000000000000000000000000000000000000000081526004016102a890610968565b60405180910390fd5b80600160008473ffffffffffffffffffffffffffffffffffffffff1673ffffffffffffffffffffffffffffffffffffffff1681526020019081526020016000205414610332576040517f08c379a0000000000000000000000000000000000000000000000000000000008152600401610329906109d4565b60405180910390fd5b8047106104925760008273ffffffffffffffffffffffffffffffffffffffff168260405161035f90610a25565b60006040518083038185875af1925050503d806000811461039c576040519150601f19603f3d011682016040523d82523d6000602084013e6103a1565b606091505b50509050806103e5576040517f08c379a00000000000000000000000000000000000000000000000000000000081526004016103dc906109d4565b60405180910390fd5b8273ffffffffffffffffffffffffffffffffffffffff167fbb28353e4598c3b9199101a66e0989549b659a59a54d2c27fbb183f1932c8e6d8360405161042b91906107c5565b60405180910390a26000600160008573ffffffffffffffffffffffffffffffffffffffff1673ffffffffffffffffffffffffffffffffffffffff168152602001908152602001600020819055506002600081548092919061048b90610a69565b9190505550505b5050565b60008054906101000a900473ffffffffffffffffffffffffffffffffffffffff1673ffffffffffffffffffffffffffffffffffffffff163373ffffffffffffffffffffffffffffffffffffffff1614610524576040517f08c379a000000000000000000000000000000000000000000000000000000000815260040161051b90610968565b60405180910390fd5b60008054906101000a900473ffffffffffffffffffffffffffffffffffffffff1673ffffffffffffffffffffffffffffffffffffffff16ff5b60008054906101000a900473ffffffffffffffffffffffffffffffffffffffff1673ffffffffffffffffffffffffffffffffffffffff163373ffffffffffffffffffffffffffffffffffffffff16146105eb576040517f08c379a00000000000000000000000000000000000000000000000000000000081526004016105e290610968565b60405180910390fd5b8060038190555050565b60035481565b60008060009054906101000a900473ffffffffffffffffffffffffffffffffffffffff16905090565b60025481565b60035460025410610670576040517f328b8d5400000000000000000000000000000000000000000000000000000000815260040161066790610ade565b60405180910390fd5b34600160003373ffffffffffffffffffffffffffffffffffffffff1673ffffffffffffffffffffffffffffffffffffffff16815260200190815260200160002081905550600260008154809291906106c790610afe565b91905055503373ffffffffffffffffffffffffffffffffffffffff167fe1fffcc4923d04b559f4d29a8bfc6cda04eb5b0d3c460751c2402c5c5cc9109c3460405161071291906107c5565b60405180910390a2565b600080fd5b600073ffffffffffffffffffffffffffffffffffffffff82169050919050565b600061074c82610721565b9050919050565b61075c81610741565b811461076757600080fd5b50565b60008135905061077981610753565b92915050565b6000602082840312156107955761079461071c565b5b60006107a38482850161076a565b91505092915050565b6000819050919050565b6107bf816107ac565b82525050565b60006020820190506107da60008301846107b6565b92915050565b60006107eb82610721565b9050919050565b6107fb816107e0565b82525050565b600060208201905061081660008301846107f2565b92915050565b610825816107e0565b811461083057600080fd5b50565b6000813590506108428161081c565b92915050565b610851816107ac565b811461085c57600080fd5b50565b60008135905061086e81610848565b92915050565b6000806040838503121561088b5761088a61071c565b5b600061089985828601610833565b92505060206108aa8582860161085f565b9150509250929050565b6000602082840312156108ca576108c961071c565b5b60006108d88482850161085f565b91505092915050565b6108ea81610741565b82525050565b600060208201905061090560008301846108e1565b92915050565b600082825260208201905092915050565b7f6f6e6c79206f776e65722063616e2063616c6c00000000000000000000000000600082015250565b600061095260138361090b565b915061095d8261091c565b602082019050919050565b6000602082019050818103600083015261098181610945565b9050919050565b7f526566756e64204661696c656400000000000000000000000000000000000000600082015250565b60006109be600d8361090b565b91506109c982610988565b602082019050919050565b600060208201905081810360008301526109ed816109b1565b9050919050565b600081905092915050565b50565b6000610a0f6000836109f4565b9150610a1a826109ff565b600082019050919050565b6000610a3082610a02565b9150819050919050565b7f4e487b7100000000000000000000000000000000000000000000000000000000600052601160045260246000fd5b6000610a74826107ac565b915060008203610a8757610a86610a3a565b5b600182039050919050565b7f536f6c64206f7574212121000000000000000000000000000000000000000000600082015250565b6000610ac8600b8361090b565b9150610ad382610a92565b602082019050919050565b60006020820190508181036000830152610af781610abb565b9050919050565b6000610b09826107ac565b91507fffffffffffffffffffffffffffffffffffffffffffffffffffffffffffffffff8203610b3b57610b3a610a3a565b5b60018201905091905056fea26469706673582212203033c4e457041470b32f5ee4a987a4a433c7cbe940220609be340510a185992f64736f6c63430008130033",
  "linkReferences": {},
  "deployedLinkReferences": {}
}